:100000009CC10000CBC10000C9C10000C7C10000F5
:10001000C5C100000C941230C1C10000BFC1000076
:10002000BDC10000BBC10000B9C10000B7C10000E4
:10003000B5C100000C94E82FB1C10000AFC10000B1
:10004000ADC10000ABC10000A9C10000A7C1000004
:10005000A5C10000A3C10000A1C100009FC1000014
:100060009DC100000C943C3099C1000097C1000074
:1000700095C1000093C1000091C100008FC1000034
:100080008DC100008BC1000089C1000087C1000044
:100090000C94713083C1000081C100007FC1000059
:1000A0007DC100007BC1000079C1000077C1000064
:1000B00075C1000073C1000071C100006FC1000074
:1000C0006DC100006BC1000069C10000F80CFF0C9D
:1000D000060D0D0D140D1B0D220D290D300D3B0DC0
:1000E0006E616E00696E66007C3C3E5E2B3D3F2F6C
:1000F0005B5D3B2C2A225C00253032642D2530329A
:10010000642D253032642E637376002531306C7592
:100110002C2531306C752C2531302E3036662C254F
:1001200031302E3036662C2531302E3032662C257B
:1001300031302E3032662C2531302E3032662C256F
:1001400034752C2531312E3032662C25386C752CC7
:1001500025382E3032662C25386C752C25372E30FC
:1001600032662C25372E3032662C25386C752C25BE
:1001700037752C2534750D0A002020205254435425
:10018000494D452C204C4F43414C54494D452C2062
:10019000204C415449545544452C204C4F4E47491E
:1001A000545544452C2020414C5449545544452C29
:1001B000202020202053504545442C20202042451B
:1001C0004152494E472C534154532C54454D5045B0
:1001D0005241545552452C50524553535552452C7B
:1001E00048554D49444954592C2020202020564F31
:1001F000432C202020504D32352C4241545445523E
:10020000592C202020202043504D2C564F4C544137
:1002100047452C445554592C4750532C574946496F
:100220002C485454500D0A00253032642D253032AC
:10023000642D253032642E6373760000407A10F30B
:100240005A00A0724E18090010A5D4E80000E87604
:1002500048170000E40B54020000CA9A3B0000005B
:10026000E1F505000080969800000040420F000074
:1002700000A08601000000102700000000E8030035
:100280000000006400000000000A000000000001FF
:1002900000000000002C76D888DC674F0823DFC1FF
:1002A000DFAE59E1B1B796E5E3E453C63AE65199BA
:1002B0007696E8E6C28426EB898C9B62ED407C6FE3
:1002C000FCEFBC9C9F40F2BAA56FA5F490055A2A9A
:1002D000F75C936B6CF9676DC11BFCE0E40D47FEA6
:1002E000F520E6B500D0ED902E030094357705009B
:1002F00080841E080000204E0A000000C80C333322
:1003000033330F986E12831141EF8D2114893BE630
:100310005516CFFEE6DB18D1844B381BF77C1D90B9
:100320001DA4BBE424203284725E228100C9F12422
:10033000ECA1E53D27003723E43011241FBECFEFA9
:10034000D1E2DEBFCDBF00E00CBF12E0A0E0B2E022
:10035000EAE5FDE600E00BBF02C007900D92A6396A
:10036000B107D9F728E0A6E9B2E001C01D92AC318F
:10037000B207E1F713E0CAE3D3E000E006C022973A
:100380000109FE010BBF0E944331C633D10780E053
:100390000807A9F70E9488300C94AB3631CE2F9213
:1003A0003F924F925F926F927F928F929F92AF9205
:1003B000BF92CF92DF92EF92FF920F931F93CF9352
:1003C000DF93CDB7DEB763970FB6F894DEBF0FBEED
:1003D000CDBF7C011B016A01FC011782168283815B
:1003E00081FF66C3BE016F5F7F4F4B01F7019381B1
:1003F000F10193FD859193FF81911F01882309F4F9
:1004000053C3853239F493FD859193FF81911F0188
:10041000853239F4B70190E00E94EC355601650150
:10042000E5CF10E0512C20E02032A0F48B3269F0AF
:1004300030F4803259F0833269F420612CC08D325F
:1004400039F0803339F4216026C02260246023C053
:10045000286021C027FD27C030ED380F3A3078F4EE
:1004600026FF06C0FAE01F9F300D1124132F13C082
:100470006AE0569E300D1124532E20620CC08E323D
:1004800021F426FD11C3206406C08C3611F42068C7
:1004900002C0883641F4F10193FD859193FF81916B
:1004A0001F018111C1CF9BEB980F933018F420618D
:1004B000805E06C09BE9980F933008F0AAC12F7E9A
:1004C00026FF16E02F73722E853621F4F22FF0648A
:1004D0007F2E08C0863621F4622F6068762E02C017
:1004E0001111115077FE07C01C3348F44424439483
:1004F000410E27E00BC0183030F4212F06C027E052
:100500004CE3442E03C027E017E0412C560174E071
:10051000A70EB11CF6016081718182819381042D47
:10052000A4010E94D0346C01098100FF02C003FFC6
:1005300006C071FC07C072FC08C0612C08C03DE217
:10054000632E05C02BE2622E02C090E2692E802F3E
:100550008C7099F1662011F084E001C083E085156C
:1005600010F0512C0BC0581A73FC08C0B70180E280
:1005700090E00E94EC355A94C9F7F3CF662029F039
:10058000B701862D90E00E94EC3503FD03C004EE18
:1005900010E002C000EE10E0F72DF0717F2EF801A0
:1005A0008491882309F476C271108052B70190E0DB
:1005B0000E94EC350F5F1F4FF2CF77FE0FC04C0C3F
:1005C00004FF04C08A81813309F44A94141474F539
:1005D000F8E0F41578F588E0482E2CC076FC2AC0A7
:1005E000812F90E08C159D059CF06CEFC6166FEF87
:1005F000D60674F0772D7068772E0AC0E2E0F0E03E
:10060000EC0FFD1FE10FF11D8081803319F41150B3
:100610001111F4CF77FE0EC044244394410E812F74
:1006200090E0C816D9062CF41C1904C04424439445
:1006300001C010E077FE07C01C141D043CF49601B5
:100640002F5F3F4F05C025E030E002C021E030E0E1
:10065000662011F02F5F3F4F112331F0412F50E002
:100660004F5F5F4F240F351F452D50E0241735078E
:1006700014F4521A01C0512C872D897049F4552069
:1006800039F0B70180E290E00E94EC355A94F7CF40
:10069000662029F0B701862D90E00E94EC3573FCAE
:1006A00009C0552039F0B70180E390E00E94EC3595
:1006B0005A94F7CF77FE5FC09C2D8D2DD7FE02C0D8
:1006C00090E080E0692E782E40E050E0C601841969
:1006D00091099D878C87960126193709280D391DA8
:1006E000812F90E0EE27FF27E81BF90BFF87EE87AD
:1006F000FFEF6F167F0669F4B7018EE290E02B8B57
:100700003A8B488B598B0E94EC35598948893A8934
:100710002B89C614D70454F06C857D856615770542
:100720002CF4F901E40FF51F818101C080E371E031
:10073000671A71084F5F5F4FEE85FF856E167F0663
:100740006CF0B70190E02B8B3A8B488B598B0E9451
:10075000EC352B893A8948895989CACF6C147D04B4
:1007600039F49A81963318F4953311F404FF81E338
:10077000B70190E04BC08A81813309F00F7EB70149
:1007800090E00E94EC35111105C074FE18C085E49C
:1007900090E017C0B7018EE290E00E94EC3582E055
:1007A00066246394680EF401E80FF11D8081B7019F
:1007B00090E00E94EC35115041F3862DF1CF85E693
:1007C00090E0B7010E94EC35D7FC05C0C114D104FC
:1007D00039F404FF05C0D194C194D1088DE201C061
:1007E0008BE2B70190E00E94EC3580E36AE0C61628
:1007F000D1042CF08F5FFAE0CF1AD108F7CFB70100
:1008000090E00E94EC35B701C601C0960E94EC351D
:1008100041C1833631F0833779F0833509F058C010
:1008200021C0560172E0A70EB11CF60180818983B8
:1008300001E010E0640114C05601F2E0AF0EB11CFB
:10084000F601C080D18026FF03C0612F70E002C096
:100850006FEF7FEFC6012B8B0E94E1358C012B8956
:100860002F7715C05601F2E0AF0EB11CF601C08023
:10087000D18026FF03C0612F70E002C06FEF7FEFD1
:10088000C6012B8B0E94AF358C012B892068722EFC
:1008900023FD1AC0852D90E008171907A8F4B701A9
:1008A00080E290E00E94EC355A94F4CFF60177FC98
:1008B000859177FE81916F01B70190E00E94EC3540
:1008C00051105A94015011090115110579F7E2C030
:1008D000843611F0893651F5560127FF09C0F4E03E
:1008E000AF0EB11CF60160817181828193810AC0D3
:1008F000F2E0AF0EB11CF60160817181882777FDAF
:100900008095982F022F0F7697FF08C090958095BD
:10091000709561957F4F8F4F9F4F00682AE030E0C0
:10092000A4010E944D36C82EC8183EC0022F85373C
:1009300021F40F7E2AE030E01DC0097F8F3691F050
:1009400018F4883559F0B0C0803719F0883711F0A5
:10095000ABC0006104FF09C0046007C024FF08C0E9
:10096000066006C028E030E005C020E130E002C0AB
:1009700020E132E0560107FF09C0F4E0AF0EB11CE0
:10098000F601608171818281938108C0F2E0AF0E2F
:10099000B11CF6016081718180E090E0A4010E94A9
:1009A0004D36C82EC8180F7706FF0BC0202F2E7F9C
:1009B000C11650F404FF0AC002FD08C0202F2E7E8D
:1009C00005C0DC2C202F03C0DC2C01C0D12E24FF5D
:1009D0000DC0FE01EC0DF11D8081803311F4297EE4
:1009E00009C022FF06C0D394D39404C0822F867816
:1009F00009F0D39423FD13C020FF06C01C2DD5148D
:100A000018F4150D1D19D52CD51468F4B70180E222
:100A100090E02B8B0E94EC35D3942B89F5CFD51425
:100A200010F45D1801C0512C24FF12C0B70180E3FF
:100A300090E02B8B0E94EC352B8922FF17C021FF01
:100A400003C088E590E002C088E790E0B7010CC0E1
:100A5000822F867859F021FD02C080E201C08BE22E
:100A600027FD8DE2B70190E00E94EC35C11638F405
:100A7000B70180E390E00E94EC351150F7CFCA94A3
:100A8000F401EC0DF11D8081B70190E00E94EC357E
:100A9000C110F5CF552009F4C2CCB70180E290E037
:100AA0000E94EC355A94F6CFF7018681978102C0F7
:100AB0008FEF9FEF63960FB6F894DEBF0FBECDBFEA
:100AC000DF91CF911F910F91FF90EF90DF90CF902A
:100AD000BF90AF909F908F907F906F905F904F905E
:100AE0003F902F900895EF92FF920F931F93CF9313
:100AF000DF93EC01798368832A833B834C835D8396
:100B00001CE0169FF001179FF00D1124EA5EFD4FC7
:100B1000A281B381FB0163E0EE0FFF1F6A95E1F74D
:100B2000EA5FFD4FEE24E394F12CB701048002C08C
:100B3000660F771F0A94E2F7C701038002C0880F8F
:100B4000991F0A94E2F7862B8C93E881F9811E9F06
:100B5000D0011F9FB00D1124AA5EBD4F14960D90B9
:100B6000BC91A02D83E0EE0FFF1F8A95E1F7EA5FAD
:100B7000FD4FB701068002C0660F771F0A94E2F7A7
:100B8000C701058002C0880F991F0A94E2F7862BDF
:100B90008C9360E070E18EE090E00E940231215081
:100BA0003109410951092E833F834887598788813C
:100BB0009981189FF001199FF00D1124EA5EFD4FF5
:100BC0000084F185E02DBB27A52F942F832F8083F0
:100BD00088819981189FF001199FF00D1124EA5E18
:100BE000FD4F0284F385E02D8E8180830023F1F098
:100BF000E881F9811E9FD0011F9FB00D1124AA5ECC
:100C0000BD4F12960D90BC91A02D8C9193E0EE0FEC
:100C1000FF1F9A95E1F7EA5FFD4F008002C0EE0CDE
:100C2000FF1C0A94E2F78E298C937894DF91CF9180
:100C30001F910F91FF90EF900895FC0180819181A9
:100C40002CE0289FF001299FF00D1124EA5EFD4F52
:100C5000A081B181FC0123E0EE0FFF1F2A95E1F78F
:100C6000EA5FFD4F41E050E0018002C0440F551F94
:100C70000A94E2F72C9130E024233523232BD1F37F
:100C80002CE0289FF001299FF00D1124EA5EFD4F12
:100C90000680F781E02D60830895CF92DF92EF9276
:100CA000FF920F931F93CF93DF936C018B01EA01A7
:100CB0004F3F8FEF580739F4EB0109900020E9F717
:100CC0002197C61BD70B7801C701801B910B8C178E
:100CD0009D0734F4D7016D917D01C601AEDFF4CFDD
:100CE000D601ED91FC918CE08E9FD0018F9FB00DCD
:100CF0001124AA5EBD4F0D90BC91A02D33E0EE0FE4
:100D0000FF1F3A95E1F7EA5FFD4F21E030E00780F1
:100D100002C0220F331F0A94E2F78C9190E08223E5
:100D20009323892BD1F3DF91CF911F910F91FF90E6
:100D3000EF90DF90CF900895FC0175876487578707
:100D40004687F6E626EE80E0F15020408040E1F74D
:100D500083B5826883BD80E28093B60092E0909371
:100D6000B000E1EBF0E08081866080838FE78093C4
:100D7000B3009093700083B58F7783BD7894089506
:100D8000CF93DF93EC01688179818A819B816F5FCA
:100D90007F4F8F4F9F4F688379838A839B83611531
:100DA00071058105910579F02CE330E040E050E0D9
:100DB0000E940231672B682B692B29F4EE85FF8591
:100DC000309709F01995EC85FD85309719F0DF9182
:100DD000CF911994DF91CF910895FC0160817181C9
:100DE000828193812CE330E040E050E00E940231A8
:100DF000862F08959A01AB011092B90060E070E06F
:100E000081EE90E00E9402312051310941095109DF
:100E100056954795379527952093B800089584EA0D
:100E20008093BC008AEE93E02091BC0027FD05C0B2
:100E300001970097C9F781E008958091B900887FF4
:100E4000883011F08031B9F76093BB0084E880935B
:100E5000BC008AEE93E02091BC0027FD04C00197FE
:100E60000097C9F7E8CF9091B900987F983119F0B1
:100E700081E0903409F480E0089524EA34E8209376
:100E8000BC008AEE93E04091BC0047FD05C001978D
:100E90000097C9F781E008958091B900887F883074
:100EA000C9F76093BB003093BC008AEE93E0409199
:100EB000BC0047FD04C001970097C9F7EBCF8091B4
:100EC000B900887F8831D9F680E0089584E980935D
:100ED000BC008AEE93E02091BC0024FF03C0019780
:100EE0000097C9F708956093BB0084E88093BC0025
:100EF0008AEE93E02091BC0027FD05C00197009782
:100F0000C9F781E008C09091B900987F81E09832DC
:100F100011F480E00895089584EC8093BC008091E2
:100F2000BC0087FFFCCF8091BB00089584E88093CC
:100F3000BC008AEE93E02091BC0027FD05C001971C
:100F40000097C9F781E008958091BB000895EF9262
:100F5000FF921F93CF93DF931F92CDB7DEB77C0133
:100F6000122F49838ADF4981882311F081E00DC067
:100F7000642FC701B8DF8111F9CF612FC701B3DF3B
:100F80008111F4CFC701A2DF80E00F90DF91CF91F4
:100F90001F91FF90EF900895AF92BF92CF92DF9292
:100FA000EF92FF920F931F93CF93DF931F92CDB7D2
:100FB000DEB75C01122FD32E49835FDF4981811197
:100FC00015C0642FC5018FDF811110C0C12EE12E25
:100FD000FD2C8E2D8C19801758F4F70161917F013B
:100FE000C50181DF8823A9F3C50170DF81E003C05B
:100FF000C5016CDF80E00F90DF91CF911F910F91C1
:10100000FF90EF90DF90CF90BF90AF900895CF9278
:10101000DF92FF920F931F93CF93DF931F92CDB771
:10102000DEB76C01F62E8901498327DF49818823C9
:1010300011F081E014C0642FC60155DF8111F9CF92
:101040006F2D6160C601EBDE8111F3CFC60164DF55
:10105000F8018083C6016ADFC60138DF80E00F90A7
:10106000DF91CF911F910F91FF90DF90CF90089566
:10107000AF92BF92CF92DF92EF92FF920F931F93A6
:10108000CF93DF931F92CDB7DEB75C01F62E122F00
:10109000D32E4983F2DE4981882311F081E01DC0FF
:1010A000642FC50120DF8111F9CF6F2D6160C5016B
:1010B000B6DE8111F3CFC12EE12EFD2C8E2D8C19C1
:1010C000801730F4C50128DFF70181937F01F6CF47
:1010D000C5012CDFC501FADE80E00F90DF91CF91D2
:1010E0001F910F91FF90EF90DF90CF90BF90AF9046
:1010F0000895DC019C9111968C911197E92FF82F9E
:101100008291611104C014969C91892303C01396A7
:101110009C91892B80830895FC01A081B1818C91E1
:10112000662319F09381892B02C0948189238C93C3
:1011300066830895FC018581813011F486810895CC
:10114000A081B18112979C918381982381E009F459
:1011500080E008951F93CF93DF93EC01EBDF11E064
:101160001827612FCE01D8DF812FDF91CF911F91FA
:10117000089527E820937A0021E0FC012083089558
:10118000FC01208121110BC027E820937A0021E087
:1011900020838CEC9CE10197F1F700C000006064B3
:1011A00060937C0080917A00806480937A008091C3
:1011B0007A0086FDFCCF809178002091790090E044
:1011C000922B08954F925F926F927F928F929F928F
:1011D000AF92BF92CF92DF92EF92FF920F931F9345
:1011E0004A015B0169016E2DCBDFBC0180E090E01C
:1011F0000E94493220E030E040E85AE30E94FF328A
:101200002B013C01B601600F711F80E090E00E944D
:1012100049329B01AC01C301B2010E94FF326B0154
:101220007C01B80180E090E00E9449329B01AC0152
:10123000C701B6010E94B031A50194010E94FF329E
:101240001F910F91FF90EF90DF90CF90BF90AF90E4
:101250009F908F907F906F905F904F900895CF9266
:10126000DF92EF92FF92CF93DF93EB01FC0162815B
:101270008081918185DFBC0180E090E00E9449324D
:1012800023E333E343E55BE30E94FF326B017C0120
:1012900020E030E040E050E40E94FB3218162CF4CD
:1012A000C12CD12CE12C80E4F82E20E030E04AEF74
:1012B00053E4C701B6010E94FF32688379838A83B1
:1012C0009B83DF91CF91FF90EF90DF90CF900895B7
:1012D000FC0160830895DC01EC91E150EB3058F49F
:1012E000B4E0EB9FF0011124EE5CFD4F6081718151
:1012F00082819381089560E070E0CB0108958F9220
:101300009F92AF92BF92CF92DF92EF92FF92CF93D4
:10131000DF93EC016A017B0149835A836B837C83F1
:10132000DADF4B015C01C701B6010E9449329B0123
:10133000AC01C501B4010E94FF326D837E838F83AF
:101340009887DF91CF91FF90EF90DF90CF90BF9083
:10135000AF909F908F900895FC016181728183818D
:1013600094810895EF92FF920F93CF93DF93CDB7BF
:10137000DEB7AA970FB6F894DEBF0FBECDBF7C01D3
:101380001AA609E19E012F5F3F4F49E86EEEFC016E
:10139000808191816DDE00E19E01265E3F4F41EE2E
:1013A0006EEEF7018081918163DE8BA190E0982F32
:1013B00088272AA1822BF701938382838B8190E077
:1013C000982F88272A81822B958384838C8186831A
:1013D0008F8190E0982F88272E81822B908787839A
:1013E000898590E0982F88272885822B928781878E
:1013F0008A8583878D8590E0982F88272C85822B7E
:10140000958784878F8590E0982F88272E85822B5B
:10141000978786878989808B8889818B8D8990E0E1
:10142000982F88272C89822B938B828B8F8990E031
:10143000982F88272E89822B958B848B888D868B7D
:101440004B8D842F90E024E0959587952A95E1F7C0
:101450002C8DF0E12F9F90011124822B932BF7010B
:10146000908F878B4F708A8DF0E18F9FC001112480
:10147000842BF701928F818F8D8D838F8E8D848F3A
:101480008F8D858F88A1868F89A1878F8EA180A35C
:101490008DA190E0982F88272CA1822B92A381A365
:1014A0008FA183A301E09E01265D3F4F42E06EEED7
:1014B00080819181DDDD8AA5807390E044E095957F
:1014C00087954A95E1F7F70180A79E01265D3F4F7A
:1014D00044E06EEE80819181CBDD8AA582958F708C
:1014E000F70181A7AA960FB6F894DEBF0FBECDBF55
:1014F000DF91CF910F91FF90EF900895EF92FF92BF
:101500000F931F93CF93DF931F92CDB7DEB77C016C
:10151000162F198201E09E012F5F3F4F45E76EEEC7
:10152000FC0180819181A4DDF4E01F9F90011124D2
:101530002C718981837E282B298345E76EEEF70184
:101540008081918104DD0F90DF91CF911F910F91E8
:10155000FF90EF900895EF92FF920F931F93CF9318
:10156000DF931F92CDB7DEB77C01162F198201E001
:101570009E012F5F3F4F42E76EEEFC01808191811B
:1015800077DD212F27708981887F282B298342E7E7
:101590006EEEF70180819181DADC0F90DF91CF91BF
:1015A0001F910F91FF90EF900895EF92FF920F938C
:1015B0001F93CF93DF931F92CDB7DEB77C01162F19
:1015C000198201E09E012F5F3F4F44E76EEEFC0160
:1015D000808191814DDDF4E01F9F900111242C71D9
:1015E0008981837E282B298344E76EEEF701808171
:1015F0009181ADDC0F90DF91CF911F910F91FF9002
:10160000EF900895EF92FF920F931F93CF93DF9384
:101610001F92CDB7DEB77C01162F198201E09E0123
:101620002F5F3F4F41E76EEEFC018081918120DD0D
:10163000298110FB24F9298341E76EEEF7018081AF
:10164000918185DC0F90DF91CF911F910F91FF90D9
:10165000EF900895EF92FF920F931F93CF93DF9334
:101660001F92CDB7DEB77C01162F198201E09E01D3
:101670002F5F3F4F44E76EEEFC0180819181F8DCE3
:10168000F0E21F9FB001112429812F71262B29839D
:1016900044E76EEEF7018081918159DC0F90DF9174
:1016A000CF911F910F91FF90EF900895EF92FF92CD
:1016B0000F931F93CF93DF931F92CDB7DEB77C01BB
:1016C000162F198201E09E012F5F3F4F41E76EEE1A
:1016D000FC0180819181CCDC212F2F708981807F5A
:1016E000282B298341E76EEEF701808191812FDC61
:1016F0000F90DF91CF911F910F91FF90EF90089580
:10170000EF92FF920F931F93CF93DF93EC0160341E
:10171000710518F44C59262F76C0CB0180549109DD
:1017200081389F4008F06DC07B01F694E794F694F1
:10173000E7948FE38E1520F0262F237050E002C02F
:1017400020E051E08B01E4E016950795EA95E1F77A
:10175000003420F4862F8F7030E002C080E031E04A
:10176000962F9F73513029F4981718F0313049F5AE
:1017700036C0313029F4921718F05130A1F42FC03F
:1017800051114BC0311149C0821728F0921768F4EB
:10179000291728F542C0821708F03FC0981798F41F
:1017A0009817E8F03AC0511138C014E6140F2E2DE6
:1017B000412F6EEE88819981CADB2E2D2F73206414
:1017C0001EC031112AC014E6140F202F412F6EEED7
:1017D00088819981BCDB202F2F73206810C08B017A
:1017E00056E0169507955A95E1F714E6140F202F49
:1017F000412F6EEE88819981AADB202F206C412F2A
:1018000002C04C592FEF6EEE88819981DF91CF9104
:101810001F910F91FF90EF909ACBDF91CF911F9185
:101820000F91FF90EF9008954F925F926F927F9289
:101830008F929F92AF92BF92CF92DF92EF92FF92E0
:101840000F931F93CF93DF93EC015B018A01CB01D0
:10185000885C9109893C9105B8F468A1772767FDF8
:101860007095872F972F0E944B3220E030E040E8A0
:101870005DE30E94FF3220E030E044E152E40E9448
:1018800048316B017C0103C0C12CD12C760169A1C8
:101890007AA1882777FD8095982F0E944B3220E00F
:1018A00030E040E058E30E94FF322FE632E143E0AF
:1018B0005AE30E94FF3225E732E04AE15BE30E94EF
:1018C00048312B013C01B50180E090E00E94493293
:1018D0009B01AC01C301B2010E94FF3220E030E065
:1018E00040E85FE30E9448319B01AC01C701B601AB
:1018F0000E94FF326B017C016BA1772767FD709519
:10190000872F972F0E944B3220E030E040E85AE3C7
:101910000E94FF324B015C01B801882777FD80955A
:10192000982F0E944B329B01AC01C501B4010E946B
:10193000FF329B01AC01C701B6010E9448316B0127
:101940007C0168A570E080E090E00E94493220E0D0
:1019500030E040E850E40E9448319B01AC0160E077
:1019600070E080E890E40E94B0319B01AC01C701B7
:10197000B6010E94FF3220E030E048EC51E40E94C2
:1019800047312AE939E949E550E40E94FF320E94D3
:101990001D32862FDF91CF911F910F91FF90EF9015
:1019A000DF90CF90BF90AF909F908F907F906F907F
:1019B0005F904F900895EF92FF920F931F93CF93F4
:1019C000DF931F92CDB7DEB77C01162F198250E04E
:1019D0004A30510508F05AC0FA01EA59FF4FDC01BC
:1019E0008D919C9101E09E012F5F3F4F0C9424311B
:1019F0004AE56EEE3DDB1983212F4AE537C04BE502
:101A00006EEE36DB1983212F4BE53BC04CE56EEEC5
:101A10002FDB1983212F4CE529C04DE56EEE28DB25
:101A20001983212F4DE52DC04EE56EEE21DB198384
:101A3000212F4EE51BC04FE56EEE1ADB1983212FD7
:101A40004FE51FC040E66EEE13DB1983212F40E601
:101A50000DC041E66EEE0CDB1983212F41E611C06B
:101A600042E66EEE05DB1983212F42E66EEEF701AA
:101A7000808191810AC043E66EEEFADA1983212F44
:101A800043E66EEED7018D919C9161DA0F90DF9164
:101A9000CF911F910F91FF90EF900895CF93DF9317
:101AA000EC0160E02BDD61E0CE0155DD62E0CE01AE
:101AB0007CDD63E0CE01CEDD61E0CE01A3DD60E040
:101AC000CE01F4DD40E064E670E0CE0119DE88E688
:101AD00091E09BA78AA78EE190E09DA78CA74EE19D
:101AE00050E068E671E0CE019FDE40E0682FCE0155
:101AF000DF91CF9160CFEF92FF920F93CF93DF935F
:101B00001F92CDB7DEB77C01CB01F70171836083F3
:101B1000198201E09E012F5F3F4F40ED6EEEA8DA83
:101B20008981813631F4C7011DDCC701B7DF81E04F
:101B300001C080E00F90DF91CF910F91FF90EF9067
:101B40000895EF92FF920F931F93CF93DF931F920D
:101B5000CDB7DEB77C01162F198201E09E012F5F01
:101B60003F4F44E76EEEFC018081918181DA212FA5
:101B7000237089818C7F282B298344E76EEEF7013F
:101B800080819181E4D90F90DF91CF911F910F91C6
:101B9000FF90EF9008954F925F926F927F928F9295
:101BA0009F92AF92BF92CF92DF92EF92FF92CF932C
:101BB000DF93EC01CB01BA010E9449322B013C01B9
:101BC0006A817B8180E090E00E9449324B015C0198
:101BD00020E030E040E057E3C301B2010E94FF3251
:101BE0006B017C0120E030E040E059E3C501B40125
:101BF0000E94FF329B01AC01C701B6010E94473130
:101C00006B017C0120E030E040E858E3C301B20101
:101C10000E94FF322B013C0120E030E040E85AE313
:101C2000C501B4010E94FF329B01AC01C301B201A6
:101C30000E9447314B015C016C817D81882777FDD3
:101C40008095982F0E944B329B01AC01C501B401D5
:101C50000E94FF324B015C01A7019601C701B6014A
:101C60000E94FF326B017C016E81772767FD7095C2
:101C7000872F972F0E944B3220E030E040E851E45C
:101C80000E94FF329B01AC01C701B6010E94FF32E6
:101C90009B01AC01C501B4010E9448316B017C017C
:101CA0000E9418326CA37DA38EA39FA320E030E096
:101CB00040EA55E4C701B6010E94B031DF91CF91EF
:101CC000FF90EF90DF90CF90BF90AF909F908F905C
:101CD0007F906F905F904F9008954F925F926F92B8
:101CE0007F928F929F92AF92BF92CF92DF92EF92AC
:101CF000FF920F931F93CF93DF9300D01F92CDB726
:101D0000DEB78C0169017A0180E090E00E944932DF
:101D10004B015C01F8016789708D80E090E00E94C2
:101D2000493220E030E040E851E40E94FF322B01CC
:101D30003C01F801638D772767FD7095872F972FFA
:101D40000E944B3220E030E040E05FE30E94FF322F
:101D5000A70196010E94FF329B01AC01C301B201B1
:101D60000E9448319B01AC01C501B4010E9447317A
:101D700069837A838B839C83F801618D728D80E007
:101D800090E00E94493220E030E040E856E30E94B3
:101D9000FF324B015C01F801648D772767FD709578
:101DA000872F972F0E944B3220E030E040E858E325
:101DB0000E94FF32A70196010E94FF3220E030E02E
:101DC00040E85FE30E9448312B013C01F801658D3A
:101DD000772767FD7095872F972F0E944B3220E061
:101DE00030E040E855E30E94FF32A70196010E94CF
:101DF000FF32A70196010E94FF329B01AC01C30193
:101E0000B2010E9448319B01AC01C501B4010E949E
:101E1000FF329B01AC0169817A818B819C810E9498
:101E2000FF324B015C01F801668D70E080E090E0CC
:101E30000E94493220E030E040E858E30E94FF323F
:101E40002B013C01F801678D772767FD7095872F7F
:101E5000972F0E944B3220E030E040E055E30E9493
:101E6000FF32A70196010E94FF329B01AC01C30122
:101E7000B2010E944831A50194010E94FF32A501E0
:101E800094010E94FF329B01AC01C501B4010E9484
:101E900048316B017C0120E030E048EC52E40E94C4
:101EA000FB3218166CF020E030E0A901C701B60142
:101EB0000E94AC3187FF0AC0C12CD12C760106C02C
:101EC000C12CD12CA8ECEA2EA2E4FA2EC701B6014F
:101ED0000F900F900F900F90DF91CF911F910F9166
:101EE000FF90EF90DF90CF90BF90AF909F908F903A
:101EF0007F906F905F904F9008952F923F924F92F6
:101F00005F926F927F928F929F92AF92BF92CF9289
:101F1000DF92EF92FF920F931F93CF93DF93CDB792
:101F2000DEB727970FB6F894DEBF0FBECDBF9F83F5
:101F30008E834A835B836C837D83FC0164A175A1DE
:101F400086A197A10E944B3220E030E040E05FE3A1
:101F50000E94FF3220E030E04AE757E40E94473118
:101F60006B017C01EE81FF81F089F983EE81FF81B5
:101F700006851785248435846385772767FD7095EA
:101F8000872F972F0E944B32A70196010E94FF32A4
:101F9000A70196010E94FF3220E030E040E052E4C9
:101FA0000E94FF3220E030E040E056E30E94FF3222
:101FB0004B015C01EE81FF8161857285882777FD89
:101FC0008095982F0E944B32A70196010E94FF3204
:101FD0009B01AC01C501B4010E94483120E030E012
:101FE00040E056E30E94FF3220E030E040E058E35A
:101FF0000E94FF3220E030E040E85FE30E94483179
:102000004B015C01EE81FF816781708580E090E08B
:102010000E9449329B01AC01C501B4010E94FF320C
:102020004B015C0120E030E0A9010E94AC31882323
:1020300009F404C1A7019601C701B6010E94FF324D
:102040002B013C01F9816F2F772767FD7095872F52
:10205000972F0E944B3220E030E040E057E30E948F
:10206000FF329B01AC01C301B2010E94FF322B0180
:102070003C01B801882777FD8095982F0E944B324C
:102080009B01AC01C701B6010E94FF329B01AC016C
:102090000E9448319B01AC01C301B2010E9448314A
:1020A00020E030E040E85EE30E94FF326B017C01FB
:1020B0006A817B818C819D810E9449329B01AC01A8
:1020C00060E070E080E899E40E9447312B013C0118
:1020D000B101882777FD8095982F0E944B3220E030
:1020E00030E040E857E40E94FF329B01AC01C70199
:1020F000B6010E94483120E030E040E859E30E94F8
:10210000FF329B01AC01C301B2010E94473120E0C4
:1021100030E543EC55E40E94FF32A50194010E9492
:10212000B0316B017C0120E030E040E85BE30E94CD
:10213000FF324B015C01EE81FF816489758988273C
:1021400077FD8095982F0E944B32A70196010E943F
:10215000FF32A70196010E94FF3220E030E040E00C
:1021600050E30E94FF322B013C01EE81FF81628926
:102170007389882777FD8095982F0E944B3220E045
:1021800030E040E058E30E94FF329B01AC01C70100
:10219000B6010E94FF329B01AC01C301B2010E9453
:1021A00048312B013C01A5019401C501B4010E94F5
:1021B000FF32A50194010E94FF324B015C01EE81C8
:1021C000FF81668970E080E090E00E944B3220E061
:1021D00030E040E057E30E94FF329B01AC01C501B3
:1021E000B4010E94FF329B01AC01C301B2010E9405
:1021F00048314B015C01EE81FF816189772767FDE2
:102200007095872F972F0E944B3220E030E040E0FE
:1022100053E40E94FF329B01AC01C501B4010E944E
:10222000483120E030E040E85DE30E94FF329B014E
:10223000AC01C701B6010E94483103C060E070E004
:10224000CB0127960FB6F894DEBF0FBECDBFDF914E
:10225000CF911F910F91FF90EF90DF90CF90BF90A3
:10226000AF909F908F907F906F905F904F903F9036
:102270002F900895CF92DF92EF92FF92CF93DF934A
:10228000EB0161E070E002C0660F771F4A95E2F74C
:10229000882777FD8095982F0E944B322DEB37E3EE
:1022A00046E054E30E94FF326B017C01BE0180E0F6
:1022B00090E00E94493220E030E040E054E40E9487
:1022C00047312BEA3AEA4AEA54E40E9448319B013A
:1022D000AC01C701B6010E94FF322BEA3AEA4AEA92
:1022E00054E40E94B0319B01AC0160E070E080E8F2
:1022F0009FE30E94B031DF91CF91FF90EF90DF908C
:10230000CF9008956F927F928F929F92AF92BF92DB
:10231000CF92DF92EF92FF920F931F93CF93DF93B1
:10232000CDB7DEB72B970FB6F894DEBF0FBECDBF8B
:102330007C014B016A01390158011C821D821E82F9
:1023400003E09E012C5F3F4F42E26EEEFC01808174
:1023500091810E9438084D8150E060E070E0B4E067
:10236000440F551F661F771FBA95D1F78C8190E0F7
:10237000A0E0B0E01CE0880F991FAA1FBB1F1A95B0
:10238000D1F7482B592B6A2B7B2B8E8190E0A0E054
:10239000B0E004E0B695A795979587950A95D1F793
:1023A000482B592B6A2B7B2BC701F5DBF40160838B
:1023B00071838283938319861A8602E09E01275FC8
:1023C0003F4F45E26EEEF701808191810E9438080F
:1023D000F4012081318142815381698570E0762F3B
:1023E00066278A85682BC70178DCF30160837183D7
:1023F0008283938319821A821B8203E09E012F5FDE
:102400003F4F4FE16EEEF701808191810E943808C5
:102410004A8150E060E070E094E0440F551F661F71
:10242000771F9A95D1F7898190E0A0E0B0E02CE089
:10243000880F991FAA1FBB1F2A95D1F7482B592B2C
:102440006A2B7B2B8B8190E0A0E0B0E034E0B69566
:10245000A795979587953A95D1F7482B592B6A2BD5
:102460007B2BC7014ADDF6016083718382839383EE
:102470001F82188602E09E01295F3F4F4AE26EEEFE
:10248000F701808191810E94380888858295869520
:1024900086958370CF80F4E0CF9E60011124C82A16
:1024A0001B8601E09E01255F3F4F4BE26EEEF70178
:1024B000808191810E9438084B854F70B601C70119
:1024C000D9DEF501608371838283938361E0C70164
:1024D00038DB2B960FB6F894DEBF0FBECDBFDF9171
:1024E000CF911F910F91FF90EF90DF90CF90BF9011
:1024F000AF909F908F907F906F900895FC017283B2
:10250000618310820895CF93DF93EC01888181115C
:1025100016C08B81811113C061E089819A810E946C
:102520008C0886E291E00197F1F700C0000060E0BE
:1025300089819A810E948C0896EF9A95F1F7DF9134
:10254000CF910895FC018381882339F08081811126
:1025500004C0818192810C94AA080895FC016083D3
:10256000662329F060E0818192810C948C080895A3
:102570008EBD0DB407FEFDCF8DB58F778DBD08954F
:102580008FEF8EBD0DB407FEFDCF8EB5089561E0CF
:10259000FC01848195810C948C0860E0FC018481AD
:1025A00095810C948C08CF93DF93EC018B85882365
:1025B000C1F08FEF8EBD4FEF8C859D859C012F5F05
:1025C0003F4F3D872C878130924028F40DB407FEA1
:1025D000FDCF4EBDF1CF0DB407FEFDCFCE01D7DF4D
:1025E0001B86DF91CF910895CF93DF93C1E1D7E2AE
:1025F000C7DF8F3F29F021972097D1F780E001C0F6
:1026000081E0DF91CF910895CF92DF92FF920F93F7
:102610001F93CF93DF9300D01F92CDB7DEB76C012D
:10262000F62E29833A834B835C83BDDFC601B5DF79
:102630006CE271E0C601D8DF8F2D806499DF08E17C
:1026400010E05C814B813A812981DA01C901002EB9
:1026500004C0B695A795979587950A94D2F72983D4
:102660003A834B835C8384DF0850110929813A81C6
:102670004B815C81083F8FEF180739F7FF2029F065
:10268000E8E0FE1621F08FEF03C085E901C087E87E
:102690006FDF10E075DFF601878787FF04C01F3FFB
:1026A00011F01F5FF7CF0F900F900F900F90DF91F9
:1026B000CF911F910F91FF90DF90CF900895BF921F
:1026C000CF92DF92EF92FF920F931F93CF93DF93FE
:1026D000EC01188A1E861B861A86598748877D83D7
:1026E0006C8355DF9AE0B92E8FEF42DFBA94E1F7A1
:1026F000CE0153DF01E117E220E030E0A90160E004
:10270000CE0182DFF82E8F8781E0F81639F0015074
:1027100011090115110581F781E045C02AEA31E070
:1027200040E050E068E0CE016FDF82FF02C0F88A2F
:102730000BC014E025DF8F871150E1F78A3A11F0C2
:1027400082E031C082E0888B8889823031F4C12CEC
:10275000D12CE12C80E4F82E03C0C12CD12C7601C1
:1027600001E117E220E030E0A90167E3CE014CDF90
:10277000A701960169E2CE0147DF8F87882339F0F0
:10278000015011090115110569F788E00CC088890D
:102790008230B1F420E030E0A9016AE3CE0134DFF9
:1027A000882329F086E08A87CE01F1DE0DC0E8DEBD
:1027B000807C803C11F483E0888BE2DEE1DEE0DEA9
:1027C000CE01E5DEBB24B3948B2DDF91CF911F9119
:1027D0000F91FF90EF90DF90CF90BF9008950F93EF
:1027E0001F93CF93DF93EC0101E117E2C9DE8F87DE
:1027F0008F3F39F40150110901151105B9F78FE028
:1028000003C08E3F31F08DE08A87CE01C0DE80E0CC
:1028100001C081E0DF91CF911F910F910895CF9278
:10282000DF92EF92FF920F931F93CF93DF93EC0110
:1028300069010115110509F472C0C801820F931FC7
:102840008130924008F06DC08B85882371F08881BB
:102850009981AA81BB81481759076A077B0729F428
:102860008C859D85C816D90608F5488359836A83E7
:102870007B838889833039F029E0440F551F661F18
:10288000771F2A95D1F79A01AB0161E1CE01BCDE39
:10289000882319F083E08A8744C0CE01A0DF882313
:1028A00009F43FC01D861C8681E08B878FEF8EBDAB
:1028B0002FEF8C859D858C159D0550F40DB407FE7A
:1028C000FDCF2EBD8C859D8501969D878C87F1CF90
:1028D000C8010197F7014FEF9F012E193F092817F3
:1028E000390738F40DB407FEFDCF2EB521934EBD48
:1028F000F3CF0DB407FEFDCF2EB5F701E80FF91F9A
:1029000020838C859D85800F911F9D878C872E85C8
:10291000222319F08115924010F0CE0144DE81E0AF
:1029200003C0CE0134DE80E0DF91CF911F910F9183
:10293000FF90EF90DF90CF900895EF92FF920F936A
:102940001F93790100E012E020E030E068DF1F9182
:102950000F91FF90EF900895EF92FF920F931F93C6
:10296000CF93DF93EC017A0120E030E0A9014CDE47
:10297000882319F08EE08A8718C0CE0130DF8823C3
:10298000A1F08701E12CF12CFBDDF80181938F018F
:10299000FFEFEF1AFF0A80E1E816F104A9F7F0DD76
:1029A000EFDDCE01F4DD81E003C0CE01F0DD80E09B
:1029B000DF91CF911F910F91FF90EF900895CF93EA
:1029C000DF93EC016EBD20E030E00DB407FEFDCFDB
:1029D000FA01E20FF31F80818EBD0DB407FEFDCF1B
:1029E00081818EBD2E5F3F4F211582E0380769F748
:1029F0000DB407FEFDCF8FEFBBDD8FEFB9DDC0DD7E
:102A00008F878F71853031F081E18A87CE01BFDDFC
:102A100080E001C081E0DF91CF9108950F931F9373
:102A2000CF93DF93EC0189014115510561057105D3
:102A300011F482E12DC08889833039F0B9E0440F68
:102A4000551F661F771FBA95D1F79A01AB0168E150
:102A5000CE01DADD882311F084E01AC0A8016EEF00
:102A6000CE01ADDF8823A9F068E572E0CE01BCDDC0
:102A7000811102C085E10CC020E030E0A9016DE0C9
:102A8000CE01C2DD811103C07BDD882331F084E1FA
:102A90008A87CE017CDD80E003C0CE0178DD81E055
:102AA000DF91CF911F910F910895CF93DF93EC01A8
:102AB0009C012E5F3F4F41E050E060E070E08F8965
:102AC000988D0E946A1E8823A1F04B895C896D89CC
:102AD0007E89452B462B472B71F44A815B816C81A3
:102AE0007D814B8B5C8B6D8B7E8B8881806888832E
:102AF00002C080E001C081E0DF91CF910895CF92C4
:102B0000DF92EF92FF921F93CF93DF93EC01CDDF23
:102B1000811102C080E04AC0EF89F88DCA80DB8055
:102B2000EC80FD8082E0C81AD108E108F108058434
:102B300004C0CC0CDD1CEE1CFF1C0A94D2F74685A9
:102B4000578560897189C40ED51EE61EF71E148153
:102B500081E0C81AD108E108F108112359F0C70132
:102B6000B601610F711D811D911D02D7882391F25D
:102B70001150F3CFEF89F88DC12C82E0D82EE12CD3
:102B8000F12C058404C0CC0CDD1CEE1CFF1C0A9447
:102B9000D2F74F85588969897A894C0D5D1D6E1D64
:102BA0007F1D4F87588B698B7A8B81E0DF91CF91A6
:102BB0001F91FF90EF90DF90CF900895CF93DF9318
:102BC000EC01462F6A857B858C859D8597D6882369
:102BD00041F08E8520E2829FC001112481569D4FD5
:102BE00002C080E090E0DF91CF910895FC01118256
:102BF0000895282FFB018BE030E231938150E9F7F3
:102C0000A22FB92F20E037E09D91992319F19E3230
:102C100019F0E8EEF0E008C03A3011F128E03AE0AF
:102C2000F3CF31964917E1F044914111FACF3217B1
:102C3000B8F04FED490F4E3598F441E0420FFB01DB
:102C4000E20FF11D2FE9290F2A3108F490529083E9
:102C5000242FDACF81E0FB019081903209F480E0EB
:102C600008950F931F93CF93DF93EC018B0189811C
:102C7000882311F080E03FC0FB0187898031B1F4E7
:102C800082E089831B8A1C8A1D8A1E8A408D518D91
:102C900060E070E095E0440F551F661F771F9A951E
:102CA000D1F74F87588B698B7A8B14C0803211F71C
:102CB00083E08983FB01428D538D648D758D4B8B31
:102CC0005C8B6D8B7E8B9E01215F3F4FC801F8D6D8
:102CD000882381F2188F0F8B81E088831A821B82F0
:102CE0001C821D821E821F82188619861A861B86E8
:102CF0001C861D861E86DF91CF911F910F9108952E
:102D00002F923F924F925F926F927F928F929F92FB
:102D1000AF92BF92CF92DF92EF92FF920F931F93E9
:102D2000CF93DF93EC016B015A018981811103C0BC
:102D30008FEF9FEFD7C0888180FFFACF4F855889EA
:102D400069897A898E819F81A885B9852501612C41
:102D5000712C8A019B01081B190B2A0B3B0B0415D4
:102D600015052605370518F45A01A81AB90A2501D0
:102D70001E0122E0220E311C4114510409F47AC0D4
:102D80004E815F81688579854A0181E09822E981D9
:102D90008A019B01F9E03695279517950795FA95D5
:102DA000D1F78F89988DE23051F4FC01628D738DDB
:102DB000848D958D600F711F821F931F3DC0FC0194
:102DC00074807A94702281149104C1F4711016C039
:102DD000452B462B472B49F48B899C89AD89BE89AD
:102DE0008A839B83AC83BD8309C04A815B816C81EC
:102DF0007D819101E2D5882309F49ACFEF89F88D7E
:102E00006A817B818C819D81625071098109910960
:102E1000058404C0660F771F881F991F0A94D2F794
:102E20000685178520893189600F711F821F931FC6
:102E3000670D711D811D911D20E032E028193909AF
:102E400032012415350508F43901288126FD04C016
:102E50006114F2E07F0699F500912E0210912F0285
:102E60002091300230913102601771078207930779
:102E700019F425C0C50136C0760183019401AB0168
:102E8000BC0180919D0290919E02C9DC882309F4C7
:102E90004FCFC60CD71C04C0E81BF90BCE0EDF1EAB
:102EA0008E819F81A885B985860D971DA11DB11DB5
:102EB0008E839F83A887B987461857085DCF40E067
:102EC0001DD5882309F434CFC40181569D4FD60106
:102ED0009C01260D371DFC01E217F307E9F2419131
:102EE0004D93FACFDF91CF911F910F91FF90EF900B
:102EF000DF90CF90BF90AF909F908F907F906F901A
:102F00005F904F903F902F900895FF920F931F93E3
:102F1000CF93DF931F92CDB7DEB78C01FC01818187
:102F2000823018F480E090E033C0F8014681578188
:102F300060857185A5E07695679557954795AA9523
:102F4000D1F7F42FFF70FF2E41E050E0BE016F5F1C
:102F50007F4FC801D5DE019719F4298130E002C006
:102F60002FEF3FEF2F3F3F4FE9F2F80146815781A6
:102F700060857185415E5F4F6F4F7F4F46835783FA
:102F800060877187F0E2FF9EC001112481569D4F3A
:102F90000F90DF91CF911F910F91FF9008954F9265
:102FA0005F926F927F92AF92BF92CF92DF92EF9239
:102FB000FF920F931F93CF93DF93EC016A017B0184
:102FC0002981222309F456C08F859889A989BA8955
:102FD00084179507A607B70708F44CC04DC08E812B
:102FE0009F81A885B985EF89F88DE585F0E0399650
:102FF000AC01BD0141505109610971090E2E04C097
:1030000076956795579547950A94D2F7970186016B
:10301000015011092109310904C0369527951795EA
:103020000795EA95D2F70417150726073707A8F57D
:103030008B899C89AD89BE898A839B83AC83BD8340
:10304000280139015E0182E0A80EB11C411451042F
:103050006104710459F14A815B816C817D81950124
:103060008F89988DAAD491E0491A51086108710896
:103070008111ECCF80E01FC02230C1F0C114D10417
:10308000E104F10409F0ABCF1A821B821C821D827D
:103090001E821F82188619860DC0892B8A2B8B2BC6
:1030A00039F2041B150B260B370BCACFCE82DF82F9
:1030B000E886F98681E0DF91CF911F910F91FF9013
:1030C000EF90DF90CF90BF90AF907F906F905F9028
:1030D0004F9008950F931F93CF93DF93EC01898155
:1030E0008823B9F1888187FF2FC061E0CE0166DDBA
:1030F0008C01009771F18981823048F44F8558899D
:1031000069897A89F801448F558F668F778F4B894B
:103110005C896D897E89F801538F428F758B648B32
:10312000E0919602F0919702309759F0B8016A5EEB
:103130007F4FC80148961995F801808D918D938B2A
:10314000828B88818F778883DF91CF911F910F9138
:103150009CC380E0DF91CF911F910F910895CF9391
:10316000DF93EC01B7DF882319F0198281E001C0F9
:1031700080E0DF91CF9108954F925F926F927F929E
:10318000AF92BF92CF92DF92EF92FF920F931F9375
:10319000CF93DF9300D01F92CDB7DEB75C016A01F9
:1031A0007B01FC0181818130E9F4808181FF1AC0BB
:1031B000F50187859089A189B28984179507A607AB
:1031C000B70780F0892B8A2B8B2B09F472C0F5018D
:1031D0004680578060847184B701A601C501DFDE97
:1031E000811102C080E066C0F5018789908DC1140D
:1031F000D104E104F10469F443895489658976892D
:103200007AD6882379F3F501138A148A158A168AE7
:1032100037C0F50142815381648175819E012F5F22
:103220003F4FCBD38823F1F249815A816B817C8156
:10323000F5018789908DFC012789203129F408EF59
:103240001FEF20E030E004C008EF1FEF2FEF3FE05A
:10325000401751076207730798F44DD6882309F485
:10326000C1CFF50142815381648175810FEF1FEF5A
:103270002FEF3FE08789908D8DD4882309F4B2CF5A
:10328000F501C786D08AE18AF28A808180688083CE
:10329000C50120DF882309F4A5CFB701A6014C148E
:1032A0005D046E047F0410F4B301A201C50177DE52
:1032B00001C081E00F900F900F900F90DF91CF91A0
:1032C0001F910F91FF90EF90DF90CF90BF90AF9044
:1032D0007F906F905F904F900895FF920F931F9390
:1032E000CF93DF93EC01F42E80E2689FF00111246C
:1032F000E156FD4F8385817129F0842F827411F08E
:1033000080E051C06E8780912E0290912F02A09193
:103310003002B09131028A879B87AC87BD87448990
:10332000558960E070E0BA0155274427028D138D5E
:1033300020E030E0402B512B622B732B4B8B5C8BAE
:103340006D8B7E8B8385887151F4048D158D268D50
:10335000378D0F87188B298B3A8B81E00BC080311A
:1033600079F69E01215F3F4F8F89988DA9D38823DD
:1033700039F284E089838F2D8F7088831A821B82B3
:103380001C821D821E821F8218861986F6FE0AC0C4
:1033900040E050E0BA01CE01DF91CF911F910F9133
:1033A000FF90EACE81E0DF91CF911F910F91FF90C6
:1033B0000895AF92BF92CF92DF92EF92FF920F9358
:1033C0001F93CF93DF93CDB7DEB72B970FB6F8944B
:1033D000DEBF0FBECDBF7C016B01CA01B22EF7016B
:1033E00021812111B3C0BE016F5F7F4F02DC8823B2
:1033F00009F4ACC0F6018789908DF701908F878B17
:10340000F6011282138214821582168217821086A8
:103410001186A12CF60106811781208531858785CB
:103420009089A189B289081719072A073B07E0F597
:1034300045E036952795179507954A95D1F70F7072
:10344000C60163DD009709F481C0FC0120812223BD
:1034500011F0253EB9F4A1100EC0F7010687409186
:103460002E0250912F0260913002709131024287FA
:10347000538764877587FC018081AA24A3948111F6
:10348000C9CF12C04BE050E0BC01CE0101960E94B2
:10349000BA35892B09F0BECF8B2D8073803309F4A8
:1034A00055C04B2D602F4FC08B2D8271823109F09A
:1034B0004DC0AA2039F061E0C70180DB8C01009784
:1034C00071F444C0F6018181823009F43FC0C60125
:1034D00016DB8823D9F1F70116860FE912E080E2A6
:1034E000F80111928A95E9F78BE0FE013196D80137
:1034F00001900D928A95E1F7E0919602F091970282
:10350000309739F0B801625F7F4FC8014096199536
:1035100009C081E298E2F801918B808B80E098E00D
:1035200097878687F80180899189938B828B918F09
:10353000808F86859785978B868BA7D1882331F0DE
:103540004B2DF7016685C701C8DE01C080E02B96D0
:103550000FB6F894DEBF0FBECDBFDF91CF911F91A4
:103560000F91FF90EF90DF90CF90BF90AF900895B4
:103570002F923F924F925F926F927F928F929F9283
:10358000AF92BF92CF92DF92EF92FF920F931F9371
:10359000CF93DF9300D01F921F92CDB7DEB78C017F
:1035A0007B016A01DC0111968C911197813009F041
:1035B00055C08C9181FF52C082FF0FC0F801478532
:1035C00050896189728986819781A085B185841728
:1035D0009507A607B70709F03BC15601D801169613
:1035E0004D915D916D917C911997A114B10409F4ED
:1035F00004C1D80157968D919C915897FC01F48194
:10360000F1502A013B0129E076946794579447943E
:103610002A95D1F7F421FD833A0121E07222F111BC
:1036200044C06114710409F040C012964D915D913F
:103630006D917C911597411551056105710589F4CE
:1036400053968D919D910D90BC91A02D0097A10551
:10365000B10531F5C80129DA811127C080E090E079
:10366000FCC09E012F5F3F4FA8D18823C1F3898101
:103670009A81AB81BC81F8012789308DF9012789B6
:10368000203129F448EF5FEF60E070E004C048EFBC
:103690005FEF6FEF7FE084179507A607B707D0F6B7
:1036A000F80182839383A483B58380E092E0861936
:1036B000970945018A159B0508F44C01D8015796D6
:1036C000ED91FC91589712962D903D904D905C9005
:1036D0001597B2E02B1A310841085108058404C03F
:1036E000220C331C441C551C0A94D2F786859785FE
:1036F000A089B189280E391E4A1E5B1EED812E0E4F
:10370000311C411C511C8114F2E09F0631F580915F
:103710002E0290912F02A0913002B09131028215B9
:103720009305A405B50559F48FEF9FEFDC01809355
:103730002E0290932F02A0933002B0933102970192
:10374000B201A10180919D0290919E0267D98823C8
:1037500009F484CF9EEFF91A40C06114710421F579
:10376000D80116964D915D916D917C9119971F9698
:103770008D919D910D90BC91A02D481759076A0716
:103780007B0790F082D0882309F468CF20922E0224
:1037900030922F02409230025092310280919C026E
:1037A000816080939C0207C041E0C201B101A6D0B4
:1037B000882309F453CFC30181569D4FD7019C0143
:1037C000280D391DFC01E217F30719F04D914193C3
:1037D000FACFE81BF90BEE0EFF1EA818B908F80186
:1037E00086819781A085B185880D991DA11DB11D88
:1037F00086839783A087B187F1CE1F968D919D9187
:103800000D90BC91A02DF801208184179507A60783
:10381000B70738F44787508B618B728B2068208301
:103820000CC08091960290919702892B31F0C114BF
:10383000D10419F02068F8012083D8018C9183FF0E
:1038400005C0C80147DC882309F408CFC60105C0BC
:10385000C801A5DB8111C1CE01CF0F900F900F9051
:103860000F900F90DF91CF911F910F91FF90EF90EC
:10387000DF90CF90BF90AF909F908F907F906F9090
:103880005F904F903F902F90089580919C028823E5
:1038900089F140912E0250912F0260913002709177
:1038A00031022FE932E080919D0290919E02B6D8BC
:1038B000882311F1409198025091990260919A02E7
:1038C00070919B02411551056105710589F02FE941
:1038D00032E080919D0290919E02A0D8882361F0F1
:1038E000109298021092990210929A0210929B02E2
:1038F00010929C0281E0089580E00895CF92DF92BB
:10390000EF92FF92CF936B017C01C42F80912E0226
:1039100090912F02A0913002B09131028C159D053B
:10392000AE05BF05C9F0B1DF811102C080E01AC049
:103930002FE932E0B701A60180919D0290919E028D
:103940000E949D14882391F3C0922E02D0922F02E0
:10395000E0923002F092310280919C028C2B809395
:103960009C0281E0CF91FF90EF90DF90CF9008957F
:10397000CF92DF92EF92FF926B017C0186DF88236A
:10398000B1F0EFE9F2E0119284E0EF39F807D9F7EE
:10399000C0922E02D0922F02E0923002F0923102B9
:1039A00080919C02816080939C0281E001C080E054
:1039B000FF90EF90DF90CF9008958F929F92AF92FB
:1039C000BF92CF92DF92EF92FF920F931F93CF930C
:1039D000DF938C016A017B01E901FC0181859285FD
:1039E000A385B4850196A11DB11D84179507A6076F
:1039F000B70710F480E057C0F801438954896589FE
:103A000076898789803129F4BB27AF2D9E2D8D2D96
:103A100009C0D701C60127E0B695A7959795879568
:103A20002A95D1F74C015D01840E951EA61EB71E86
:103A3000C501B40180902E0290902F02A090300218
:103A4000B0903102681579058A059B0589F4F80163
:103A50008789803191F4DD24EE24FF24F601EE0FF6
:103A6000FF1FE156FD4F80819181A0E0B0E016C0BC
:103A700040E044DF8111EBCFBDCFE894C7F8DD24EF
:103A8000EE24FF24F601EE0FFF1FEE0FFF1FE1569D
:103A9000FD4F80819181A281B381BF70888399831A
:103AA000AA83BB8381E0DF91CF911F910F91FF909B
:103AB000EF90DF90CF90BF90AF909F908F90089540
:103AC0004F925F926F927F92AF92BF92CF92DF92AE
:103AD000EF92FF920F931F93CF93DF9300D01F922B
:103AE000CDB7DEB78C0149835A836B837C83590140
:103AF000C12CD12C7601412C42E0542E612C712C2A
:103B000049815A816B817C819E012F5F3F4FC801A3
:103B100054DF882359F1D301C201F801058404C0A0
:103B2000880F991FAA1FBB1F0A94D2F7C80ED91E6F
:103B3000EA1EFB1E49815A816B817C818789803115
:103B400029F488EF9FEFA0E0B0E004C088EF9FEF7A
:103B5000AFEFBFE0481759076A077B0788F2F50106
:103B6000C082D182E282F38281E001C080E00F90C6
:103B70000F900F900F90DF91CF911F910F91FF90B9
:103B8000EF90DF90CF90BF90AF907F906F905F905D
:103B90004F9008954F925F926F927F928F929F9273
:103BA000AF92BF92CF92DF92EF92FF920F931F934B
:103BB000CF93DF93EC016A017B0128013901423088
:103BC00051056105710508F473C049855A856B85F7
:103BD0007C854F5F5F4F6F4F7F4F4C155D056E05C6
:103BE0007F0508F465C08B889C88AD88BE888F8966
:103BF000803129F477276F2D5E2D4D2D09C0B70137
:103C0000A601E7E07695679557954795EA95D1F730
:103C1000840E951EA61EB71E40912E0250912F02B3
:103C2000609130027091310284169506A606B7069F
:103C300071F48F89803191F4DD24EE24FF24F601A4
:103C4000EE0FFF1FE156FD4F5182408217C040E04A
:103C5000C501B40153DE8111ECCF2AC0E894C7F846
:103C6000DD24EE24FF24F601EE0FFF1FEE0FFF1FF1
:103C7000E156FD4F408251826282738280919C02A4
:103C8000816080939C028A89823080F08D819E8140
:103C9000AF81B885880D991DAA1DBB1D8093980220
:103CA00090939902A0939A02B0939B0281E001C085
:103CB00080E0DF91CF911F910F91FF90EF90DF9007
:103CC000CF90BF90AF909F908F907F906F905F90BC
:103CD0004F9008952F923F924F925F926F927F92F2
:103CE0009F92AF92BF92CF92DF92EF92FF920F938B
:103CF0001F93CF93DF93CDB7DEB760970FB6F894DD
:103D0000DEBF0FBECDBF5C014D875E876F87788BAE
:103D10001901D9014D905D906D907C904114510432
:103D20006104710431F0BFEF4B1A5B0A6B0A7B0A26
:103D300010C0FC014080518062807380992493946C
:103D40000D851E852F853889013011052105310526
:103D500009F0912CD50119962D913D914D915C91D1
:103D60001C972F5F3F4F4F4F5F4F29873A874B87F5
:103D70005C87730162011D821E821F821886F50115
:103D800081859285A385B4850D811E812F8138851B
:103D9000081719072A073B0708F054C029853A85F8
:103DA0004B855C852C153D054E055F0550F4A2E062
:103DB000CA2ED12CE12CF12CB2E04B2E512C612CCF
:103DC000712C9E012F5F3F4FB701A601C501F5DDA4
:103DD0008823C1F149815A816B817C81D701C60159
:103DE0000196A11DB11D452B462B472B19F02C0127
:103DF0003D010FC0AC01BD014419550966097709A1
:103E00000D851E852F853889401751076207730776
:103E100079F02D813E814F8158852F5F3F4F4F4F65
:103E20005F4F2D833E834F8358876C017D01A7CF61
:103E30000FEF1FEF2FEF3FE0B701A601C501AADE8C
:103E4000811117C080E03FC0D701C6010197A109C9
:103E5000B1098D839E83AF83B88797018601AC013A
:103E6000BD01C50197DE882369F3CD80DE80EF8038
:103E7000F8844C145D046E047F0430F3D1014D913D
:103E80005D916D917C91411551056105710599F424
:103E9000F1014082518262827382992099F0FFEF92
:103EA0004F1A5F0A6F0A7F0AD5014D925D926D929B
:103EB0007C92139707C093018201C5016BDE8111CB
:103EC000E7CFC0CF81E060960FB6F894DEBF0FBE9B
:103ED000CDBFDF91CF911F910F91FF90EF90DF90B9
:103EE000CF90BF90AF909F907F906F905F904F90DA
:103EF0003F902F900895AF92BF92CF92DF92EF92B2
:103F0000FF920F931F93CF93DF9300D01F92CDB7F3
:103F1000DEB75C016A017B0182E090E0A0E0B0E0E6
:103F2000F50180839183A283B3839E012F5F3F4F6E
:103F3000B701A601C50141DD882309F100E010E0C9
:103F40009801B701A601C50125DE8823C1F0C9800B
:103F5000DA80EB80FC80F5018789803129F488EFD5
:103F60009FEFA0E0B0E004C088EF9FEFAFEFBFE0AD
:103F7000C816D906EA06FB06C0F281E001C080E05F
:103F80000F900F900F900F90DF91CF911F910F9195
:103F9000FF90EF90DF90CF90BF90AF9008958F92F9
:103FA0009F92AF92BF92CF92DF92EF92FF920F93C8
:103FB0001F93CF93DF93EC01142F70939E026093B5
:103FC0009D02442339F1453010F080E0EDC040E01F
:103FD00060E070E0CB0192DC8823B9F320E1129F0E
:103FE000F0011124E35BFB4F80818F7771F78485AB
:103FF0009585A685B78584369105A105B10528F379
:10400000C084D184E284F384C114D104E104F104B6
:1040100021F4DBCFC12CD12C760140E0C701B601E1
:104020006DDC882391F28091AA029091AB028115F8
:10403000924059F63091AF02332339F28091AD02AC
:104040009091AE02892B09F4C0CF2091AC022223BB
:1040500009F4BBCF3A8B2C831D8630E041E050E061
:104060006D85062FCA01062E02C0880F991F0A947B
:10407000E2F72817390731F081E0860F8D87683025
:1040800078F3A3CF2091B5023091B6022115310506
:1040900019F040E050E008C02091C3023091C40202
:1040A0004091C5025091C6022D833E834F835887AD
:1040B0008091AD029091AE0246015701880E991E83
:1040C000A11CB11C8B8A9C8AAD8ABE8AE091B00289
:1040D000F091B102F98FE88FA091AF02B0E00E9499
:1040E0003931680D791D8A1D9B1D6A8F7B8F8C8FDE
:1040F0009D8F15E0EE0FFF1F1A95E1F7E150FE4F7F
:10410000EF2FFF27E695DC01CB018E0F9F1FA11D2E
:10411000B11D8E879F87A88BB98B8090B20290903B
:10412000B3028114910419F0A12CB12C08C0809025
:10413000BF029090C002A090C102B090C202A7013D
:104140009601281B390B4A0B5B0BDA01C901880D5C
:10415000991DAA1DBB1D04C0B695A7959795879577
:104160000A95D2F789879A87AB87BC87853F3FE05E
:104170009307A105B10510F48CE014C0853F9F4F53
:10418000A105B10510F480E10DC08091CB029091A2
:10419000CC02A091CD02B091CE028A8F9B8FAC8FC2
:1041A000BD8F80E28F8B81E0DF91CF911F910F91C6
:1041B000FF90EF90DF90CF90BF90AF909F908F9047
:1041C0000895CF93DF931F92CDB7DEB76983DC01EB
:1041D000ED91FC910280F381E02D41E050E0BE01C1
:1041E0006F5F7F4F19950F90DF91CF910895FC017C
:1041F00087859089009709F0BBC980E090E0089519
:10420000FC0187859089009711F00C946A18089535
:10421000CF93DF931F92CDB7DEB741E050E0BE01F0
:104220006F5F7F4F0E948016019719F4898190E09B
:1042300002C08FEF9FEF0F90DF91CF910895FC01A7
:1042400087859089009709F0E3CF8FEF9FEF08955E
:104250000F931F93CF93DF938C01FC018785908987
:104260000097B1F0D5DFEC018F3FFFEF9F0799F08A
:10427000F80187859089FC014681578160857185A9
:1042800041505109610971090E94CF17CE0105C043
:1042900080E090E002C08FEF9FEFDF91CF911F9100
:1042A0000F9108950F931F93CF93DF93CDB7DEB790
:1042B0008C0182E692E0F8019183808389E190E0AD
:1042C0000E94A933F801908B8787009791F029E12C
:1042D000FE013896DC0101900D922A95E1F74CE041
:1042E00050E069A17AA1C80102960E94D235F80176
:1042F0001686DF91CF911F910F910895FC0182E600
:1043000092E091838083108A178612820895DC01DF
:104310001F96ED91FC915097309729F06681778137
:104320008085918508956FEF7FEFCB010895DC01C3
:104330001F96ED91FC915097309729F06785708911
:1043400081899289089560E070E0CB010895CF9251
:10435000DF92EF92FF92CF93DF93EC018F859889E4
:10436000892BC9F0CE01E3DF6B017C01CE01CFDFE9
:10437000A7019601261B370B480B590BDA01C9011F
:10438000811530E89307A105B10538F08FEF9FE75D
:10439000A0E0B0E002C080E090E0DF91CF91FF901C
:1043A000EF90DF90CF900895CF93DF93EC018F854E
:1043B0009889009741F00E94AF188F8598890E94D4
:1043C0004134188A1F86DF91CF9108950F931F9370
:1043D000CF93DF93EC010E945F138823E1F08E01FD
:1043E0000F5E1F4F41E0BE01C801D9DD882349F0AF
:1043F000B801CE018F960E943116882351F080E0DB
:104400000BC040E0BE01C801CADD8111F1CF82E0DE
:1044100003C083E001C081E0DF91CF911F910F9134
:1044200008958F960C94F6154F925F926F927F923B
:104430008F929F92AF92BF92CF92DF92EF92FF92B4
:104440000F931F93CF93DF93CDB7DEB7EF970FB6E0
:10445000F894DEBF0FBECDBF5C014A01290189E19E
:10446000FB01BF96DE015A9601900D928A95E1F705
:104470001A828A01CE0101966C017E019AE1E90E51
:10448000F11C6FE270E0C8010E94C7350097A9F1E6
:10449000F80120812F3219F40F5F1F4FF2CF801BDC
:1044A0008D3008F08CE0682E712CA301B801CE018C
:1044B000C3960E94D235E3E3F0E0EC0FFD1FE60D5A
:1044C000F71D1082C6010E94AF1821E0AE014D5CBD
:1044D0005F4FB701C6010E94D919811103C0F501D0
:1044E000118217C0060D171DC7010E94AF189E2D1F
:1044F0008F2D7601C92ED82EC4CF08191909F201C3
:104500001183008389E1F701D50101900D928A950D
:10451000E1F7C501EF960FB6F894DEBF0FBECDBF31
:10452000DF91CF911F910F91FF90EF90DF90CF908F
:10453000BF90AF909F908F907F906F905F904F90C3
:1045400008959F92AF92BF92CF92DF92EF92FF9227
:104550000F931F93CF93DF93CDB7DEB7E4970FB6DA
:10456000F894DEBF0FBECDBF7C016B015A01922EC5
:104570009E012D5C3F4FCE014A9656DF0BA91CA928
:104580000A0D1B1DF8018081811113C08EE692E097
:104590009F938F938DB79EB749970FB6F8949EBFA0
:1045A0000FBE8DBFADB7BEB7119689E1FE017A96F9
:1045B00040C01A828B8D811103C0C7019FDE44C0A9
:1045C0008250823060F4B601615D7F4F292DA801D1
:1045D000CE0101960E94D919811110C0EECF292D6C
:1045E000A801BE01665E7F4FCE0101960E94D919D7
:1045F000882319F3CE014A960E94AF18892D867040
:1046000041F0488959896A897B89CE0101960E94C7
:10461000CF171F930F938DB79EB749970FB6F89496
:104620009EBF0FBE8DBFADB7BEB7119689E1FE012B
:10463000319601900D928A95E1F7C70133DE0FB6EE
:10464000F894DEBF0FBECDBFC701E4960FB6F89455
:10465000DEBF0FBECDBFDF91CF911F910F91FF90B5
:10466000EF90DF90CF90BF90AF909F900895109201
:10467000A9041092AA041092AD041092AF0482E033
:1046800090E0A0E0B0E08093B0049093B104A093D8
:10469000B204B093B3041092C7041092CF040895EB
:1046A000FC01718360831282138208950F939C0131
:1046B0002C5F3F4F07E040E060EDFC01808191817D
:1046C0000E9438080F910895CF93DF931F92CDB7C2
:1046D000DEB7462F19829E012F5F3F4F60EDFC0130
:1046E000808191810E94070889810F90DF91CF918D
:1046F0000895242F462F60EDFC01808191810C9458
:10470000A7070F93CF93DF93EC019C012C5F3F4FE2
:1047100007E040E060ED888199810E94CC076FE05E
:10472000CE01D2DF40E06FE0CE01DF91CF910F915B
:10473000E0CFFC018085982F9695969596959E7171
:10474000292F220F220F290F8F70820F0895FC014D
:104750008185982F9695969596959E71292F220F73
:10476000220F290F8F70820F0895FC012285922F4E
:104770009695969596959E71892F880F880F890F2B
:104780002F70820F90E08053984F08954F925F9260
:104790006F927F928F929F92AF92BF92CF92DF9251
:1047A000EF92FF920F931F93CF93DF93FB01C42FE0
:1047B000D22F1E2D603D87E0780710F0E05DF740B6
:1047C0004F01A12CB12CA501940160E873E381EEA7
:1047D00091E00E94E7302B013C0183E0880E911CA0
:1047E000A11CB11C92E0B694A794979487949A95D3
:1047F000D1F7E370FF27EF2B19F4E1E0C33008F4A1
:10480000E0E0D12CE12CF12C8EE0D81A84E9E80A02
:1048100087ECF80A212F30E0ACE3B0E00E942A31A7
:10482000C60ED71EE81EF91E202F30E0A0E1BEE024
:104830000E942A31C60ED71EE81EF91EC40CD51CD4
:10484000E61CF71CAC2FB0E0AA0FBB1FA259BD4F4E
:104850008D919C912D2F30E040E050E0280F391FC2
:10486000411D511D280D391D4A1D5B1D2E0F311D87
:10487000411D511D60E871E581E090E00E94E73044
:10488000C60ED71EE81EF91EC701B601DF91CF91F3
:104890001F910F91FF90EF90DF90CF90BF90AF905E
:1048A0009F908F907F906F905F904F900895CF92E0
:1048B000EF920F93FC0164815581268140853185FB
:1048C0009285862F8695869586958E71C82ECC0CFE
:1048D000CC0CC80E6F70C60E852F86958695869572
:1048E0008E71E82EEE0CEE0CE80E5F70E50E822F56
:1048F0008695869586958E71082F000F000F080FFC
:104900002F70020F842F8695869586958E71282F9D
:10491000220F220F280F4F70240F832F8695869524
:1049200086958E71482F440F440F480F3F70430FF8
:10493000892F8695869586958E71682F660F660FEE
:10494000680F9F70690F70E0CF0120DF0F91EF902B
:10495000CF900895FC01862F6AE00E94F63020E196
:10496000829F900D112494830895FC01862F6AE0A4
:104970000E94F63020E1829F900D112495830895C6
:10498000FC01862F6AE00E94F63020E1829F900DA4
:10499000112496830895FC01862F6AE00E94F63068
:1049A00020E1829F900D112490870895FC01862FAD
:1049B0006AE00E94F63020E1829F900D11249187D9
:1049C0000895FC01603D27E0720710F0605D7740BC
:1049D000862F6AE00E94F63020E1829F900D11241C
:1049E00092870895CF93DF93EC016EE06DDE40E097
:1049F0006EE0CE01DF91CF917CCE4F925F926F92AD
:104A00007F928F929F92AF92BF92CF92DF92EF925E
:104A1000FF920F931F93CF93DF93EB0110E000E021
:104A20008DEC482E8CEC582E652C8DE3782E812C45
:104A3000912C5401C12CD12C7601E991EE2309F47B
:104A400042C0ED32E1F1EB32C1F3EE32D1F1F0E0F0
:104A5000011113C0AAE0B0E0A70196010E9439310C
:104A60006B017C01CF01C097AA2797FDA095BA2FB3
:104A7000C80ED91EEA1EFB1EE0CFBF0160537109AC
:104A8000882777FD8095982F0E944B329B01AC01BF
:104A9000C301B2010E94FF329B01AC01C501B40108
:104AA0000E9448314B015C0120E030E040E251E4DB
:104AB000C301B2010E94B0312B013C01BECF11E015
:104AC000BCCF01E0BACFC701B6010E944B329B01B7
:104AD000AC01C501B4010E94483111119058DF9119
:104AE000CF911F910F91FF90EF90DF90CF90BF90EB
:104AF000AF909F908F907F906F905F904F900895B0
:104B0000CF93DF93DB01FA01EF018D91882329F028
:104B10009191992311F08917B9F390E02881821BB4
:104B20009109DF91CF9108954F925F926F927F929A
:104B30008F929F92AF92BF92CF92DF92EF92FF92AD
:104B40000F931F93CF93DF93EC01FC01E25DFE4FC7
:104B50002081822F90E0213410F0C79701C0C097C8
:104B60009C0194E0220F331F9A95E1F7FE01E15D6D
:104B7000FE4F4081842F90E0413410F0C79701C070
:104B8000C097820F931FFE01E25CFE4F20813181AE
:104B90002817390709F083C24E0122E0820E911CCA
:104BA00048E852E0B401CE01ABDF892B09F001C126
:104BB000FE01E45AFF4F8081EF50FF4F5F018E01ED
:104BC000075B1E4F803309F407C12989822F90E0CB
:104BD000213410F0C79701C0C097880F282F220FEB
:104BE000220F280F3A89832F90E0313410F0C797B5
:104BF00001C0C097FE01EF5AFE4F820F80832B89C0
:104C0000822F90E0213410F0C79701C0C097880F21
:104C1000282F220F220F280F3C89832F90E0313458
:104C200010F0C79701C0C097FE01EE5AFE4F820FE9
:104C300080832D89822F90E0213410F0C79701C026
:104C4000C097880F282F220F220F280F3E89832F0D
:104C500090E0313410F0C79701C0C097FE01ED5AC3
:104C6000FE4F820F8083BE01605E7F4FCE01C5DEA6
:104C70006B017C01F5016083718382839383BE01A4
:104C8000625C7F4FCE01B9DEF8016083718382835D
:104C900093832FA5233549F4F7FAF094F7F8F094AD
:104CA000F501C082D182E282F382FE01E35BFF4F15
:104CB0002081273541F4DC01CB01B058F801808315
:104CC0009183A283B383F501408051806280738019
:104CD00020E030E048EC52E4C301B2010E94B03160
:104CE0000E9462336B017C0120E030E048EC52E42A
:104CF0000E94FF329B01AC01C301B2010E94473107
:104D000020E030E040E752E40E94B0319B01AC016A
:104D1000C701B6010E944831F50160837183828327
:104D20009383F801408051806280738020E030E0FE
:104D300048EC52E4C301B2010E94B0310E946233D8
:104D40006B017C0120E030E048EC52E40E94FF322D
:104D50009B01AC01C301B2010E94473120E030E069
:104D600040E752E40E94B0319B01AC01C701B6019B
:104D70000E944831F8016083718382839383BE016E
:104D800065597F4FCE0139DE0E941832FE01E95A83
:104D9000FE4F71836083BE0167577F4FCE012DDECA
:104DA000FE01E75AFE4F608371838283938381E023
:104DB00089834FE852E0B401CE01A2DE892B09F0CD
:104DC0006EC188A19E01235B3E4F59018E01075B96
:104DD0001E4F863561F4F90110821182128213820E
:104DE000F8011082118212821382198258C1298916
:104DF000822F90E0213410F0C79701C0C097880F30
:104E0000282F220F220F280F3A89832F90E0313468
:104E100010F0C79701C0C097FE01EF5AFE4F820FF6
:104E200080832B89822F90E0213410F0C79701C036
:104E3000C097880F282F220F220F280F3C89832F1D
:104E400090E0313410F0C79701C0C097FE01EE5AD0
:104E5000FE4F820F80832D89822F90E0213410F045
:104E6000C79701C0C097880F282F220F220F280F45
:104E70003E89832F90E0313410F0C79701C0C0976E
:104E8000FE01ED5AFE4F820F8083BE01615D7F4FB0
:104E9000CE01B3DD6B017C01F501608371838283F8
:104EA0009383BE01635B7F4FCE01A7DDF801608372
:104EB0007183828393832EAD233549F4F7FAF094FE
:104EC000F7F8F094F501C082D182E282F382FE010C
:104ED000E45AFF4F2081273541F4DC01CB01B05863
:104EE000F80180839183A283B383F50140805180D0
:104EF0006280738020E030E048EC52E4C301B201EC
:104F00000E94B0310E9462336B017C0120E030E0EE
:104F100048EC52E40E94FF329B01AC01C301B20194
:104F20000E94473120E030E040E752E40E94B03177
:104F30009B01AC01C701B6010E944831F5016083B5
:104F4000718382839383F80180809180A280B380F3
:104F500020E030E048EC52E4C501B4010E94B031D9
:104F60000E9462336B017C0120E030E048EC52E4A7
:104F70000E94FF329B01AC01C501B4010E94473180
:104F800020E030E040E752E40E94B0319B01AC01E8
:104F9000C701B6010E944831F801608371838283A2
:104FA0009383BE0165597F4FCE0127DD8E01035AE1
:104FB0001E4F26E53EE04DEE5FE30E94FF32F80112
:104FC0006083718382839383BE0166587F4FCE01D5
:104FD00014DDFE01EF59FE4F60837183828393835A
:104FE000E85DF1092081822F90E0213410F0C7970D
:104FF00001C0C097880F282F220F220F280FFE0113
:10500000E657FF4F3081832F90E0313410F0C7977F
:1050100001C0C097FE01EC5AFE4F820F8083E95C0D
:10502000F1092081822F90E0213410F0C79701C050
:10503000C097880F282F220F220F280FFE01E45758
:10504000FF4F3081832F90E0313410F0C79701C0BB
:10505000C097FE01EB5AFE4F820F8083E85CF10996
:105060002081822F90E0213410F0C79701C0C097B3
:10507000880F282F220F220F280FFE01E257FF4F23
:105080003081832F90E0313410F0C79701C0C09772
:10509000FE01EA5AFE4F820F808381E08983DF910F
:1050A000CF911F910F91FF90EF90DF90CF90BF9025
:1050B000AF909F908F907F906F905F904F900895EA
:1050C000CF92DF92EF92FF920F931F93CF93DF93D4
:1050D000EC01CD5BDE4F6432B9F421E0DC012C93AE
:1050E000FC01E35CFE4F10823196118210823296F1
:1050F00010823196118210821982188234961182A0
:105100001082329611821082FC012081222309F440
:1051100091C0AC014B5B5E4F9C01295B3E4F690126
:105120006D3011F06A3041F568817981D6012D9199
:105130003C91FA0140815181241B350B4FE0469F81
:10514000F001479FF00D1124E80FF91FE20FF31F44
:1051500012826F5F7F4F79836883FC01EF5BFE4FA4
:1051600020813181280F391FF901E25DFE4F108245
:10517000DC011C92D9DC5EC0FC01E35CFE4F2081A7
:10518000222319F06A3209F410822081222351F07F
:105190008C01025C1E4FD8012D913C91119726275E
:1051A0002D933C93643211F421E02083FC01E05CF8
:1051B000FE4F20812223A1F09C012F5B3E4FD9019D
:1051C0000D911C917C01E00EF11EB2EDEB1ABEEFC9
:1051D000FB0AD7016C930F5F1F4FD9010D931C93EE
:1051E0006A3211F421E0208308811981F6012081BF
:1051F0003181DA01ED91FC9111977901EE1AFF0AE4
:105200007FE0709FF001719FF00D1124E80FF91FEE
:10521000EE0DFF1D62836C3241F412820F5F1F4F4F
:10522000198308832D933C9305C02F5F3F4FF601F0
:105230003183208388819981DF91CF911F910F91D4
:10524000FF90EF90DF90CF900895FC018181089549
:105250008F5A9E4FFC01808190E008958E5A9E4F98
:10526000FC01808190E008958D5A9E4FFC01808161
:1052700090E008958C5A9E4FFC01808190E0089543
:105280008B5A9E4FFC01808190E008958A5A9E4F70
:10529000FC01808190E00895835B9E4FFC0160815A
:1052A0007181828193810895875B9E4FFC016081AB
:1052B0007181828193810895895A9E4FFC0180817A
:1052C00091810895875A9E4FFC016081718182818E
:1052D00093810895835A9E4FFC0160817181828180
:1052E000938108958F599E4FFC0160817181828165
:1052F00093810895FC01718360830895EF920F9369
:105300001F93FC01E28004E610E020E739E443E368
:1053100053E363E570E4808191810E94E2080E947A
:105320001D32CB011F910F91EF900895CF92DF9224
:10533000EF92FF92CF93DF93EB01FC0174836383C1
:10534000609186007091870080E090E00E94493271
:105350006B017C01BE0180E090E00E9449329B011C
:10536000AC01C701B6010E94FF3220E030E04AE7FD
:1053700054E4F6D70E941832709389006093880035
:10538000DF91CF91FF90EF90DF90CF9008950F9332
:105390001F93CF93DF93EC01798368834A8388E975
:1053A0009AE3A0E0B0E08D879E87AF87B88B8BE053
:1053B00090E09C838B838AE090E09E838D8384E8D9
:1053C00093E098878F838CE791E09A87898785E0BF
:1053D00090E09C878B871A8A198A00E810E0F80110
:1053E0001082259A2D853E854F85588960E070E0B2
:1053F00081EE90E007D730938700209386006B8181
:105400007C81CE0193DF89E180938100F801808166
:1054100082688083DF91CF911F910F910895CF9380
:10542000DF93EC016BDF9E8B8D8B29893A896B8131
:105430007C812817390720F49A8B898B7C8B6B8BA6
:105440002B853C8549855A85240F351F8217930784
:1054500048F08D819E818617970720F4615071096D
:10546000CE0164DF89859A852B853C85821B930B51
:105470002D893E898217930758F06B817C818F813B
:1054800098856817790720F46F5F7F4FCE014EDF54
:105490008B819C818438934031F46B897C89CE0167
:1054A00045DF80E001C081E0DF91CF910895FC01EC
:1054B000838194810895FC017183608353834283C7
:1054C00024830895EF920F931F93CF93DF93EC0102
:1054D00061E0888199810E948C08EC8006ED11E0E2
:1054E00026ED31E043E353E363E570E48A819B8179
:1054F0000E94E2086D837E838F83988760E08881B5
:1055000099810E948C086D817E818F819885DF91C1
:10551000CF911F910F91EF900895FC0165817681E5
:105520008781908508950895229A219A209A239838
:1055300080E58CBD8DB581608DBD0895CF93DF93DF
:10554000EC011C82FC01E35BFF4F15861486178675
:105550001686FD9610821182E059FE4F1286138640
:105560001686108A719642E050E060E070E0408359
:10557000518362837383178A7E96118264E0855813
:105580009D4F0E946809CE0189579D4FCCDFCE0107
:105590008A559D4F0E947E21FE01E156FD4F1082EB
:1055A000198218821B821A82DF91CF9108955F922F
:1055B0006F927F928F929F92AF92BF92CF92DF9223
:1055C000EF92FF920F931F93CF93DF93EC017983B8
:1055D00068835B834A83FC01EC53FD4F108283E0B8
:1055E0008F830EE210E01E830D8388E0888787EFAB
:1055F0008987992493949A8661E0CE0105960E944A
:1056000079081B8686E0882E8D8A92E2A92EB12C1D
:10561000BC8AAB8A20E4E22EEE8A3FEBF32EFF8AAF
:10562000988E61E0CE0143960E947908198E42E07F
:10563000542E5C8E1B8F0A8F54E0652E6D8E6BEF9F
:10564000762E7E8E9F8E61E0CE014A960E9479086A
:1056500018A21BA274E3C72ED12CDAA2C9A29CA265
:105660008EEF8DA39EA261E0CE0181960E94790803
:105670001FA28AA68BE290E099A788A7EBA6FCA6BA
:105680009DA661E0CE0188960E9479081EA67E0143
:105690008FE2E80EF11CE7E08E2E89AAB8AAAFA629
:1056A000F0E8AF2EAAAAAFE7BA2EBBAA9CAA61E087
:1056B000C7010E9479081DAA85E08E871D870C8787
:1056C00080E28F878FED888B198A60E0CE010C967F
:1056D0000E9479081A8A5FAEDEAECDAEFE01E05CB4
:1056E000FF4F6082319670823196908261E0CE01E8
:1056F000CD960E947908FE01ED5BFF4F10828E016E
:105700000C5B1F4FF801828288E290E091838083D6
:10571000A382B482958261E0C8010E947908F801F1
:105720001682045A1D4FB701C8010E947E12B801AB
:10573000CE018C559D4FDEDDBE01655B7F4FCE01F6
:1057400081519E4FDF91CF911F910F91FF90EF906C
:10575000DF90CF90BF90AF909F908F907F906F9091
:105760005F900C9450230F931F93CF93DF93EC0122
:105770008C0100561D4FC8010E948312C8010E946F
:10578000831260E0CE014396DF91CF911F910F917C
:105790000C948C086F927F928F929F92AF92BF92DF
:1057A000CF92DF92EF92FF920F931F93CF93DF93ED
:1057B000CDB7DEB7A1970FB6F894DEBF0FBECDBF51
:1057C0008C010C960E949A08980121563D4F790150
:1057D000811197C0F901808181119FC0229A219A7D
:1057E000209A239883E58CBD8DB58E7F8DBD5801A1
:1057F000F6E0AF1AFEEFBF0AA801445B5F4FB801A5
:105800006B5F7F4FC5010E94E62198012A553D4FED
:10581000690181116CC081E1F501DE0111960190F1
:105820000D928A95E1F7AE014E5E5F4F6AE0CE01C0
:1058300001960E94AC14480131E1831A3EEF930AAD
:10584000C4010E949923682EC4010E94A723782EC8
:10585000C4010E94B5234801E9E48E1AEDEF9E0AC7
:105860001F926F921F927F92805D97409F938F93BC
:1058700088E292E09F938F939F928F920E941E36B0
:1058800023E1A401B501CE0101960E94A1228DE081
:10589000FE013396D601129601900D928A95E1F79A
:1058A00088899989F601908B878769E771E0F8010B
:1058B000808191810E94A835F80160817181FB018E
:1058C00001900020E9F7AF0141505109461B570BE9
:1058D000C6010E94F720C6010E94D42181E0F70191
:1058E00080830FB6F894DEBF0FBECDBF08C0C901DC
:1058F0000E94D421F7011082C5010E94112214DEFA
:105900000CC0C8018A559D4F0E94D421F701108216
:10591000C80186509E4F0E941122F7018081A196F6
:105920000FB6F894DEBF0FBECDBFDF91CF911F91B0
:105930000F91FF90EF90DF90CF90BF90AF909F902E
:105940008F907F906F900895CF92DF92EF92FF92A9
:105950000F931F93CF93DF93EC0161E043960E9476
:105960008C082FEF8FE796E1215080409040E1F7BF
:1059700000C0000061E0CE014A960E948C082FEF23
:105980008FE796E1215080409040E1F700C0000091
:1059900061E0CE0181960E948C082FEF8FE796E19F
:1059A000215080409040E1F700C0000061E0CE014E
:1059B0008C5B9F4F0E948C082FEF8FE796E1215060
:1059C00080409040E1F700C000008E01015D1F4F54
:1059D00061E0C8010E948C088FEF9FE80197F1F702
:1059E00000C0000060E0C8010E948C0885B7806894
:1059F00085BF85B7806885BF7E0194E0E90EF11C04
:105A0000C7010E94B90801E020E835E240E050E01B
:105A100060E070E0CE01815A9F4F0E94730500E064
:105A200020E835E240E050E061E070E0CE018759C7
:105A30009F4F0E947305EAE6F0E0808183608083D7
:105A4000EC9A8E01055B1F4F40E85AE166E070E07A
:105A5000C8010E94FA066E0121E1C21A2EEFD20A95
:105A6000C6010E94F224C6010E9456234EE95FE25D
:105A700061EB7FE2CE01835B9F4F0E949C0654DD69
:105A8000BE01635C7F4F25E0A701CE018C5B9D4F7B
:105A900012DD40E0B701CE018D589F4F78DC4EEE0D
:105AA000B801CE01835B9D4F0E947B0DFE01EC5738
:105AB000FD4FF182E08281E08283CE016BDE78943B
:105AC00060E0CE0180569D4FDF91CF911F910F91E5
:105AD000FF90EF90DF90CF900C94AE122F923F92F8
